:100000000C94BE090C94E6090C94E6090C94E609DC
:100010000C94E6090C94E6090C94E6090C94E609A4
:100020000C94E6090C94E6090C94E6090C94E60994
:100030000C94E6090C94E6090C94E6090C94E60984
:100040000C94E6090C94E6090C9446630C94E609BA
:100050000C947B660C94AD660C94E6090C94E6094E
:100060000C94E6090C94E6090C9426620C94E609BB
:100070000C94E6090C94E6090C94E6094E4F2053C3
:100080004443415244004843530050726F677261C9
:100090006D6D65720041726475696E6F0053442026
:1000A00053657269616C20657869737421004545F8
:1000B00050524F4D205772697465205375636365C4
:1000C00066756C6C2100454550524F4D2057726942
:1000D0007465204572726F7221005344205365721B
:1000E00069616C2065786973742100496E76616C72
:1000F000696420536565642100496E76616C6964AA
:10010000204D616E636F64652100496E76616C6994
:10011000642053657269616C210042534C31004286
:10012000534C3000566C6F77004F565231004F568B
:1001300052300042534C3000566C6F770058534594
:1001400052005333534554005458454E004D5458B3
:10015000340042525300566C6F77004F53433300C4
:100160004F534332004F534331004F53433000430A
:100170004F4E46494755524154494F4E20574F52D2
:100180004C44004F4B004F4B0053454355524500E4
:100190004E4F524D414C0053494D504C45004C453B
:1001A00041524E005345525F30004449534300448E
:1001B00049534352494D494E4154494F4E004843DB
:1001C00053333631004843533336300048435333BA
:1001D00032300048435333303100484353333030DA
:1001E00000484353323031004843533230300049E5
:1001F0006E76616C696420536565642100496E7692
:10020000616C69642053657269616C2100496E7686
:10021000616C6964204D616E636F646521005359A0
:100220004E4300444953430053454544005345520F
:1002300049414C004D414E434F4445004153440019
:10024000454550524F4D2057726974652053756370
:10025000636566756C6C2100454550524F4D2057C3
:1002600072697465204572726F7221005265616413
:10027000696E6720454550524F4D2E2E2E00577205
:10028000697474696E6720454550524F4D20436F25
:100290006D706C65746521005772697474696E675E
:1002A00020454550524F4D20436F6D706C6574650D
:1002B00021005772697474696E6720454550524F2A
:1002C0004D2E2E2E2E00454550524F4D5F577269D0
:1002D00074655F4275666665723A20004545505206
:1002E0004F4D205772697465205375636365667559
:1002F0006C6C21007C3C3E5E2B3D3F2F5B5D3B2CBC
:100300002A225C0000000000003E5B4F5B3E3E6B1B
:100310004F6B3E1C3E7C3E1C183C7E3C181C577D9F
:10032000571C1C5E7F5E1C00183C1800FFE7C3E7EB
:10033000FF0018241800FFE7DBE7FF30483A060EFD
:100340002629792926407F050507407F05253F5A44
:100350003CE73C5A7F3E1C1C08081C1C3E7F1422B4
:100360007F22145F5F005F5F06097F017F0066895F
:10037000956A606060606094A2FFA29408047E04A5
:100380000810207E201008082A1C08081C2A0808CB
:100390001E101010100C1E0C1E0C30383E3830068B
:1003A0000E3E0E06000000000000005F0000000787
:1003B000000700147F147F14242A6B2A12231308C9
:1003C000646236495620500000070000001C22419C
:1003D000000041221C000A040E040A08083E080816
:1003E0000040300000080808080800606000004075
:1003F000300806013E5149453E00427F40007249A7
:100400004949462141494D331814127F102745456B
:1004100045393E494949324121110907364949497F
:1004200036264949493E00001400000040340000CF
:100430000814224100141414141400412214080258
:10044000015909063E415D49267C1211127C7F4903
:100450004949363E414141227F4141413E7F494920
:1004600049417F090901033E414151737F08080852
:100470007F00417F41002040413F017F081422411D
:100480007F404040607F021C027F7F0408107F3E57
:100490004141413E7F090909063E4151215E7F09E4
:1004A000192946264949493203017F01033F40404B
:1004B000403F1F2040201F3F4038403F6314081436
:1004C0006303047804036351494563007F4141009D
:1004D00001060830400041417F000402010204404F
:1004E00040404040000102040020545478407F28DE
:1004F0004444383844444428384444287F385454C9
:10050000541800087E090218A4A49C787F080404EB
:100510007800447D40002040403D007F102844008A
:1005200000417F40007C047804787C08040478381B
:1005300044444438FC1824241818242418FC7C084B
:10054000040408485454542404043F44243C4040C8
:10055000207C1C2040201C3C4030403C442810287B
:10056000444C9090907C4464544C440008364100C4
:100570000000770000004136080008040810083C1D
:100580002623263C3E3E3E3E3E003E3E1C08003EAC
:10059000003E0008082A1C08081C2A080804027FDC
:1005A000020410207F2010001C1C1C003E003E1C7A
:1005B00008002F773B001C22081408081408221C8E
:1005C0007F41414141414141417F41414141417F61
:1005D000415D5D5D5D5D5D417F415D5D5D41003E15
:1005E00022140806010006010403000403000C0C99
:1005F00000000008080800080808080800000000BB
:1006000000781127117870087C5020000014080031
:100610007C107C50207C101229447F120A70007CD0
:1006200040C0407C000000000023443904032449FA
:1006300032090420413F01005D2222225D7E020238
:1006400002010000770000004A5529007C555445FE
:10065000003E7F63773E3E4949412208140008145A
:10066000080808081800000000003E5F4B553E00D7
:10067000457C450000040A040044445F44440041B2
:100680007F410000447D40007C040402007C101087
:100690003C40060F7F017F0000080000385554558C
:1006A000187C10207C013854544428140800140885
:1006B00020403D0000664949493308545454200005
:1006C000457C41007C1211127C7F494949307F49A9
:1006D0004949367F01010101C07E417FC07F494900
:1006E000494177087F087700494949367F10080457
:1006F0007F7F1009047F7F081422417C0201017F63
:100700007F020C027F7F0808087F3E4141413E7F07
:100710000101017F7F090909063E41414122010192
:100720007F0101074848483F0E117F110E631408EE
:1007300014637F40407FC0070808087F7F407F40E8
:100740007F7F407F40FF017F4848307F4830007FF7
:100750007F48484830224149493E7F083E413E4655
:100760002919097F20545454787C545454207C54C3
:100770005454287C04040400C078447CC038545489
:1007800054186C107C106C00545454287C201008B1
:100790007C7C2012087C7C10102844700804047CA7
:1007A0007C0810087C7C1010107C38444444387C51
:1007B0000404047C7C1414140838444444280404BD
:1007C0007C04040C5050503C3844FC4438442810FD
:1007D00028447C40407CC00C1010107C7C407C4045
:1007E0007C7C407C40FC047C5050207C5020007C71
:1007F0007C5050200028445454387C1038443848E9
:100800003414147C11007F96290001007F96280083
:100810003A0155FF03FF9806BA01E0BC15030F63C8
:100820006901011B117073FFFF08090500EEE20169
:1008300000C1BD080123456701234567BE090022A9
:10084000276ABCD8922222C7011EED037F0F00C089
:1008500003E30B00FC0108DF06000000000002F3C8
:100860000174B403000000F70181B103001014F11A
:1008700003298A07F20440D25028C1041785852035
:10088000E010000C150D0F0C0705070B10100D17CD
:100890000F00E110000D150E100D0806070C1111C8
:1008A0000E170F00350100000000000000000000DE
:1008B00000000000000000FFFF0F000004006208BD
:1008C0000008080003000C01030B5A020306090389
:1008D0000317100403002305030017060309630729
:1008E00003090C08030C1009033222100016001132
:1008F000000101120000001300010000013003019B
:100900000137020301000D800200610201B0C1FF46
:10091000FF32000100000102000001030030100955
:100920000001000C000000900000800F000000108B
:100930000200001102EF001202000013028F0100FA
:100940000500000105000002055F0001040100042C
:10095000040000FFFF320007000001FFFF3200002B
:100960000200000102000000000000000000000082
:1009700000000000000100A4000100FFFF0A006069
:100980000000270800080830001402310015373233
:100990000004063300160E3400112235000015360F
:1009A0000007853700071438000314390020009031
:1009B0000015001000100411003702290046002A1B
:1009C000004600070000001200890113000011FF1B
:1009D000FF96001200B901010000010200000203AD
:1009E000003010090001000A0000000D0000000E98
:1009F000003000610001006A0000008000000081FA
:100A000000000082005F009200000193000107FFD8
:100A1000FF500007000001C0021010C10141C504D1
:100A200000228040360168B00100B102B011B4016B
:100A300002B60302023BB701C63A0155F704A951B9
:100A40002C82C0020D0DC1024300C20100C504008A
:100A5000480048B40100B60302023BE00F0F211C1E
:100A60000B0E08499838091103141000E10F0F2FDD
:100A70002B0C0E06477637071104231E00B0010029
:100A8000B30402000000B40100D003074218D103F0
:100A9000000710D2020102D3020102D4020102C0F7
:100AA00005123B000211C103101088C50103C601E5
:100AB00002C80C003236450616377577540C00CC48
:100AC0000100B903FF9342C0021D0AC10102C50221
:100AD0002F2FC701C3B8010BE00F0F33300C0F08E5
:100AE0005D664A0713051B0E08E10F080E11020E82
:100AF00002243337030A0926330FF603010100CF1E
:100B000003008130ED0464031281E803851078CB83
:100B100005392C003402F70120EA020000B0010080
:100B2000B102001BB40100C00121C10111C5023F87
:100B30003CC701B5360148F20100260101E00F0F64
:100B400026240B0E0954A8460C17090F0700E10FC5
:100B500000191B0410072A473903060630380F36E0
:100B60000100B00100C10410100202C006003500EF
:100B7000000102C50104D2020104CA0100EA018099
:100B800002070830050736000B07131201000001A9
:100B900002000001030030100800020209000000FA
:100BA0000C0000000F000000000100000201000026
:100BB00003010000FFFFC80000019011010127029E
:100BC000FFFF32000201BD01FFFF32000301002DD3
:100BD00081020E00FFFF320000020000010200004F
:100BE00000030000010307070203060605030000D7
:100BF0000603000D070306070803050009030700A5
:100C00000C0300000D030A00000400310104010080
:100C100004040000000500000105000002050000BA
:100C20000305000004050000050500001000100089
:100C3000110000062000020007007301E500F078B3
:100C40000100000102000002030030100400000057
:100C50000500000008000702090000000A0000006B
:100C60000C0000000D0000000F000000100000004C
:100C7000110007001200000013000000070001002F
:100C8000FFFFC8001000901611002702FFFF32007E
:100C900012000D00FFFF32001300001229000A00AD
:100CA0002B000D00FFFF320020000000210000009B
:100CB0003000000031000404320003003500050458
:100CC0003600080837000704380003033900070717
:100CD0003C0004053D000808600000276100010099
:100CE0006A00000080000000810000008200000017
:100CF00083000000840000008500000090001000C8
:100D00009200000007003301E500008000000100B0
:100D10000100000102000007030030100400000081
:100D200008000202090000000A0000000C00000098
:100D30000D0000000F00000010000000110007006F
:100D40001200000013000000FFFF32001000B01777
:100D500011000700FFFF0A0012003A01FFFF0A001E
:100D60001300001A29000C00FFFF0A0030000000E9
:100D70003100050532000400350006003600070783
:100D80003700050138000200390007073C0004075E
:100D90003D000708600000A7610001006A00000034
:100DA0002100000020000000800000008100000001
:100DB0008200000083000000840000008500000025
:100DC00090001000920000009300030095001001B5
:100DD000970000009800000007007301FFFF320039
:100DE00010000000110000001200000013000000BD
:100DF00014000000FFFF28001100180012002161FC
:100E000013006F0014005F4910000008FFFF0A0084
:100E100011003B10FFFF320001001C010200000125
:100E20000300301007000000080008080B00001144
:100E30000C0000000F00010D150020002000000034
:100E400021000000300000003100DB003200000013
:100E5000330000003400DB00350000003600AF0036
:100E6000370000003800DB003900000050000000AF
:100E70005100080852000A0853000A005400080AEA
:100E800055000808560000005700000A58001007D7
:100E90005900100707001200FFFF3200070017106B
:100EA000B903FF83577F967F96B60125C006505041
:100EB000013C1E08B4070240002A2A0D78E02202F5
:100EC0000A111D2335414B4B423A271B08090302E7
:100ED0000A111D2335414B4B423A271B08090300D9
:100EE000017F01460C944100332345447712CC46E0
:100EF000820101061601C823039595FF270402020B
:100F000002022C0202023A040101F0007F50350275
:100F100038783E013840010F4101F019012D93014D
:100F2000067F502001401D0307000444023C127F4D
:100F3000501C01047F504301807F501B01087F50EB
:100F40001B01107F5090017F2601047F5026012451
:100F500026012C7F5026013C570102550100570104
:100F600000E50110E70110E80148EC0109ED016C12
:100F700023016F240157250171E201181B0115019E
:100F800001001C01031901017F051F018C1F018451
:100F90007F0A1F01947F0A1F01D47F05400D002B9B
:100FA000293E3D3F24740806070D17500D0002012D
:100FB00016143F0B5B08121819175D01FF16010884
:100FC0002801207F282801387F2828013C020200C0
:100FD00000040200EF060200000802018F800200F8
:100FE00000820200001701058301028501038B01C5
:100FF000018C01939101018301003E0CB003105656
:1010000013462376005E4F401701912B01F97F0AAA
:101010001B01141A01111C01061F01427F14190142
:101020000A19011A7F281901127F281E01277F64DF
:101030002401603D01403401383501382401387FF6
:101040002824013C16011C010106550106EA020094
:1010500020EC020CC4E80138E90110F10101F201B1
:1010600010400D010000100E24045002131919162F
:10107000500E1B312F3F3F3E2F7B0906060C1DCC27
:101080001B011B1A010124012F2501572301881878
:1010900001341901010101001F01887F051F018032
:1010A0007F031F01907F051F01D07F0517010536C3
:1010B00001002801387F2828013F160118F20B167D
:1010C00016030808080810041616FD03110235B2AD
:1010D000050C0C003333B70135BB012BC00104C232
:1010E0000201FFC30111C40120C6010FD002A4A157
:1010F000E00ED000050E150D3743470915121619DD
:10110000E10ED000050D0C062D44400E1C181619DA
:10111000FF000100F30008000000010001000001D1
:10112000020000070300301008000203090000005D
:101130001000000011000700120000001300000062
:10114000FFFF32001000B014FFFF0A00110007007B
:10115000FFFF0A0012008E001300000C290015008A
:10116000FFFF0A00300000003100070132000000DC
:101170003500030236000204370000003800070281
:10118000390000003C0003023D000304600000A79A
:10119000610001009000290007003301FFFF3200C9
:1011A0003A01557F0A150030009A00100011002006
:1011B00000100028341200020013003810FFFF282E
:1011C0000012001200FFFF28001000203413004519
:1011D00030FFFF46003000000031000204320007FB
:1011E0000333000403340004003500010436000713
:1011F000073700050338001006390010060100000B
:10120000010200000303003010080008080A00086B
:1012100000600000276100010090003E0192000084
:101220000193000001A0000030A30010000700019E
:1012300000070021000700230007003300070033E8
:1012400001B00103E2013FC00122E20100B0010050
:10125000C0010AB0010011001A0012002131130070
:101260006C001400494210000008FFFF0A00110042
:101270001A01FFFF0A0011001A03FFFF0A00110004
:101280001A07FFFF0A0011001A0FFFFF0A001100E2
:101290003A0FFFFF1E0001002801020000010300B9
:1012A000301007001210080003030B0000110C009F
:1012B00000000F000118150020005000010151002E
:1012C00003065200080453000000540005065500B0
:1012D000060456000303570003035800100059008A
:1012E000001007001200FFFF28000700130007008E
:1012F00017000000000000000002040903000000C5
:1013000000000000000000000000000000000000DD
:101310000508010204080102040820401020408052
:1013200080402010080402010102040810204080BF
:1013300010800404040402020202040402020202F5
:10134000010101010101010103030303030303037D
:1013500004040000200023002600290000002200D1
:10136000250028002B0000002100240027002A006F
:101370000827AB37CF3AEC61DD66C82711241FBEC2
:10138000CFEFD0E1DEBFCDBF12E0A0E0B1E0E4E9F5
:10139000F7EE02C005900D92A63DB107D9F72DE0FA
:1013A000A6EDB2E001C01D92AA33B207E1F719E041
:1013B000CDEBD9E004C02197FE010E94636CC83BCD
:1013C000D107C9F70E94BE690C94BD730C9400004C
:1013D000CF92DF92EF92FF920F931F93E82FF92F96
:1013E00005C0015011092109310961F1908196234D
:1013F0009417B9F305C0015011092109310911F100
:10140000908196239413F7CFC12CD12CE12CF12C91
:101410000AC08FEFC81AD80AE80AF80A0C151D0589
:101420002E053F0579F080818623841791F36C2D7A
:101430007D2D8E2D9F2D1F910F91FF90EF90DF90AE
:10144000CF90089560E070E080E090E01F910F91F0
:10145000FF90EF90DF90CF900895EF92FF920F935F
:101460001F93DC011A960D911C911B9718962D91D4
:101470003C911997ED91FC910684F785E02D7B0155
:1014800050E040E070E060E009951F910F91FF90FF
:10149000EF9008954F925F926F927F929F92AF92DA
:1014A000BF92CF92DF92EF92FF920F931F93CF9351
:1014B000DF9300D000D000D0CDB7DEB78AE199E04D
:1014C0000E941F4829833A834B835C836D837E830C
:1014D00061E08FE00E948D6461E080E10E948D6494
:1014E00061E08FE00E94C96461E080E10E94C9640C
:1014F0008D819E818556910999249394833823E0A8
:10150000920708F0912C8338934008F04EC081E494
:1015100099E00E94F3504B805C80052C000C66081B
:101520007708092E000CAA0BBB0BBF93AF939F93B8
:101530008F93A12CB12C650118E8E12EF12C00E06D
:1015400010E022E933E040E050E0C301B2010E9424
:10155000BF67709325096093240981E499E00E9494
:10156000F75049805A80052C000C66087708092E30
:10157000000CAA0BBB0BBF93AF939F938F931CE7F9
:10158000E12EF12C00E010E021E833E040E050E0F3
:10159000C301B2010E94BF677093230960932209BF
:1015A0000FB6F894DEBF0FBECDBF892D26960FB6BD
:1015B000F894DEBF0FBECDBFDF91CF911F910F9189
:1015C000FF90EF90DF90CF90BF90AF909F907F9073
:1015D0006F905F904F9008954F925F926F927F92BD
:1015E0008F929F92AF92BF92CF92DF92EF92FF9233
:1015F0000F931F93CF93DF93CDB7DEB72C970FB622
:10160000F894DEBF0FBECDBF49015A0167017801D2
:10161000EFE0F0E09F012F733327260137012032DE
:10162000310524F0205231092401350104C076949B
:101630006794579447942A95D2F7A3019201217099
:101640003327442755272D833E834F8358872B010B
:101650003C012DE176946794579447942A95D1F7ED
:10166000A3019201227033274427552729873A87FF
:101670004B875C872B013C0139E176946794579442
:1016800047943A95D1F721E04222552466247724E5
:1016900029853A854B855C85420E531E641E751E56
:1016A000440C551C661C771C9B01AC01A3E15695AC
:1016B000479537952795AA95D1F721703327442769
:1016C0005527420E531E641E751E440C551C661C85
:1016D000771C272F382F492F552721703327442770
:1016E0005527420E531E641E751EA201440F551F3E
:1016F000DB01A170BB274A0F5B1F2EE2422E24E7BD
:10170000522E2CE5622E2AE3722E04C07594679443
:10171000579447944A95D2F7A30192012170332739
:101720004427552729833A834B835C832B013C0153
:101730003FE076946794579447943A95D1F731E017
:101740004322552466247724660F771F881F991F2C
:10175000611D642575258625972549805A806B80F3
:101760007C8064257525862597252D813E814F81B6
:10177000588562277327842795273197EF3F3DEFE0
:10178000F30709F047CF2C960FB6F894DEBF0FBED3
:10179000CDBFDF91CF911F910F91FF90EF90DF9020
:1017A000CF90BF90AF909F908F907F906F905F9001
:1017B0004F9008954F925F926F927F928F929F9277
:1017C000AF92BF92EF92FF920F931F93CF93DF934D
:1017D00000D000D01F92CDB7DEB72091C8052D8371
:1017E0008090310390903203A0903303B090340383
:1017F000222309F455C060912D0370912E0380912E
:101800002F039091300320913D0330913E0340918E
:101810003F035091400329833A834B835C8340907C
:101820004103509042036090430370904403790158
:101830008A01A30192010E94EC0A60933503709320
:10184000360380933703909338033D81311102C0F2
:1018500040E6B42AE980FA800B811C81A301920141
:10186000C501B4010E94EC0A6093390370933A03F6
:1018700080933B0390933C030F900F900F900F9039
:101880000F90DF91CF911F910F91FF90EF90BF903C
:10189000AF909F908F907F906F905F904F90089542
:1018A000C501B4019062AFCFEF92FF920F931F93E7
:1018B000CF93DF93CDB7DEB76B970FB6F894DEBF4B
:1018C0000FBECDBFEDB6FEB660E775E086E795E0EA
:1018D0000E944B696FE271E086E795E00E945269D1
:1018E00040917A0550917B054F5F5F4F8DB79EB752
:1018F000841B950B0FB6F8949EBF0FBE8DBF0DB71E
:101900001EB70F5F1F4F30E020E0B80186E795E07B
:101910000E948E6923E1A80163E779E0CE01019678
:101920000E94FF368B819C8190938505809384056E
:101930008D819E81AF81B8858093860590938705C0
:10194000A0938805B093890589859A85AB85BC8568
:1019500080938A0590938B05A0938C05B0938D0599
:10196000DE011D96EEE8F5E08D91819395E0EB396F
:10197000F907D1F78A8D9B8D90939C0580939B05E9
:10198000B80187E99CE00E94A8670FB6F894FEBEF4
:101990000FBEEDBE6B960FB6F894DEBF0FBECDBF87
:1019A000DF91CF911F910F91FF90EF9008958F924B
:1019B0009F92AF92BF92CF92DF92EF92FF920F93DE
:1019C0001F93CF93DF9342E950E069EA70E081E42E
:1019D00099E00E94DB5050E040E070E060E081E47C
:1019E00099E00E94ED5061E081E499E00E94E150AD
:1019F0006EE772E081E499E00E94466742E950E0B8
:101A000069EA70E081E499E00E94DB5050E040E038
:101A10006CE072E081E499E00E94ED5061E081E4C5
:101A200099E00E94E1506CE672E081E499E00E9446
:101A3000466786EDE82E82E0F82EE701CC24CA94B2
:101A4000DC2C812C912C54018394D982C88210E023
:101A500000E068E270E080E090E00E94C1638AE10B
:101A60000E94F764B501A401002E04C0440F551F65
:101A7000661F771F0A94D2F728813981892B09F4D0
:101A800070C0422B532B5983488361E089E10E9447
:101A9000C96483E290E00E94FA6360E089E10E94F9
:101AA000C96483E290E00E94FA630F5F1F4F003128
:101AB000110579F6229682E0CE3ED80731F660E035
:101AC00088E10E94C96460E089E10E94C96464E61B
:101AD00070E080E090E00E94C1638091B505EEEE79
:101AE000F2E0D7014D915D917D0121913191421735
:101AF000530709F081E0BEEEEB16B2E0FB0689F772
:101B00008093B50542E950E069EA70E0882371F1FD
:101B100081E499E00E94DB5050E040E060E078EF23
:101B200081E499E00E94ED5061E081E499E00E9437
:101B3000E15068E572E081E499E00E94466781E047
:101B40008093B1051092B505DF91CF911F910F9150
:101B5000FF90EF90DF90CF90BF90AF909F908F90CD
:101B6000089540955095422353238DCF81E499E009
:101B70000E94DB5050E040E060EE73E081E499E0C9
:101B80000E94ED5061E081E499E00E94E15060E440
:101B900072E081E499E00E94466781E08093B2059B
:101BA000D3CF8F929F92AF92BF92CF92DF92EF925C
:101BB0000F93CF93C1E0CF938BE492E09F938F93E9
:101BC00088248A94982C9FE1A92EB12CCC24CA9405
:101BD000DC2C39E1E32E0EE129EB30E048E250E065
:101BE00061E479E082E398E00E94FF5060E082E3E4
:101BF00098E00E943E51CF9382E592E09F938F93AD
:101C000029EB30E04BE450E061E479E085E198E0D5
:101C10000E94FF5060E085E198E00E943E51CF9322
:101C200084E391E09F938F9329EB30E04EE650E000
:101C300061E479E088EF97E00E94FF5060E088EF70
:101C400097E00E943E51CF9386E391E09F938F935C
:101C500029EB30E041E950E061E479E08BED97E079
:101C60000E94FF5060E08BED97E00E943E51CF93C1
:101C700088E391E09F938F9329EB30E044EB50E0B1
:101C800061E479E08EEB97E00E94FF5060E08EEB1C
:101C900097E00E943E51CF938AE391E09F938F9308
:101CA00029EB30E047ED50E061E479E081EA97E02C
:101CB0000E94FF5060E081EA97E00E943E51CF937E
:101CC0008CE391E09F938F9329EB30E04AEF50E053
:101CD00061E479E084E897E00E94FF5060E084E8E6
:101CE00097E00E943E51CF938EE391E09F938F93B4
:101CF00029EB30E04DE151E061E479E087E697E0DF
:101D00000E94FF5060E087E697E00E943E51CF932B
:101D100080E491E09F938F932CED30E048E250E017
:101D200061E479E08AE497E00E94FF5060E08AE491
:101D300097E00E943E51CF9382E491E09F938F936E
:101D40002CED30E04BE450E061E479E08DE297E087
:101D50000E94FF5060E08DE297E00E943E51CF93D9
:101D600084E491E09F938F932CED30E04EE650E0B9
:101D700061E479E080E197E00E94FF508DB79EB763
:101D800081960FB6F8949EBF0FBE8DBF60E080E1D4
:101D900097E00E943E51CF9386E491E09F938F930A
:101DA0002CED30E041E950E061E479E083EF96E02A
:101DB0000E94FF5060E083EF96E00E943E51CF9377
:101DC00088E491E09F938F932CED30E044EB50E05A
:101DD00061E479E086ED96E00E94FF5060E086EDD8
:101DE00096E00E943E51CF938CE591E09F938F93B4
:101DF0002CED30E047ED50E061E479E089EB96E0CE
:101E00000E94FF5060E089EB96E00E943E51CF9324
:101E10008EEA91E09F938F932CED30E04AEF50E0F3
:101E200061E479E08CE996E00E94FF5060E08CE983
:101E300096E00E943E51CF938AE491E09F938F9366
:101E40002CED30E04DE151E061E479E08FE796E080
:101E50000E94FF5060E08FE796E00E943E51CF93D2
:101E60008CE491E09F938F9340EEA42E43E0B42E38
:101E700026E930E048E250E061E479E083EC98E064
:101E80000E94FF5060E083EC98E00E943E51CF93A7
:101E900080E591E09F938F93A12C52E8B52E26E91F
:101EA00030E04BE450E061E479E089E898E00E949A
:101EB000FF5060E089E898E00E943E51CF9385E5AD
:101EC00091E09F938F9326E930E04EE650E061E485
:101ED00079E08CE698E00E94FF5060E08CE698E0A4
:101EE0000E943E51CF9389E591E09F938F93A12C5F
:101EF00068EFB62E26E930E041E950E061E479E090
:101F000080EE98E00E94FF5060E080EE98E00E9432
:101F10003E51CF938EE591E09F938F937AE0A72E69
:101F20007DE0B72E08E228E730E047E251E061E4C7
:101F300079E08DEF98E00E94FF508DB79EB74E96E6
:101F40000FB6F8949EBF0FBE8DBF60E08DEF98E096
:101F5000CF910F91EF90DF90CF90BF90AF909F9077
:101F60008F900C943E5162E081E499E00E94E15030
:101F7000609145037091460381E499E00E94E75027
:101F800042E550E060E270E081E499E00E94DB50BD
:101F90006CE372E081E499E00C94466762E081E4CE
:101FA00099E00E94E150609145037091460381E4FD
:101FB00099E00E94E7504AE050E067ED70E081E46C
:101FC00099E00E94DB5064E372E081E499E00C94B4
:101FD000466762E081E499E00E94E1506091450328
:101FE0007091460381E499E00E94E75040E250E09E
:101FF0006EE670E081E499E00E94DB506DE272E0F1
:1020000081E499E00C94466762E081E499E00E94E3
:10201000E150609145037091460381E499E00E948C
:10202000E75049E350E06EE670E081E499E00E94F9
:10203000DB5068E272E081E499E00C94466762E06C
:1020400081E499E00E94E15060914503709146035C
:1020500081E499E00E94E75040E250E069E071E0DD
:1020600081E499E00E94DB5063E272E081E499E050
:102070000C94466762E081E499E00E94E15060912F
:1020800045037091460381E499E00E94E75049E3DB
:1020900050E069E071E081E499E00E94DB506EE17C
:1020A00072E081E499E00C944667CF92DF92EF9260
:1020B000FF920F931F93CF93DF93CDB7DEB768974F
:1020C0000FB6F894DEBF0FBECDBF6BE472E0CE0159
:1020D00043960E94706864E671E0CE010D960E94FE
:1020E00070688091B00581110CC17BE6E72E75E028
:1020F000F72E0FE515E0F70161917F01CE010796FC
:102100000E948F68BE01635F7F4FCE0101960E94DF
:10211000FB68BE01695F7F4FCE0101960E94616935
:10212000BC01CE010D960E94E468CE0101960E948A
:102130000168CE0107960E940168FFE6EF16F5E000
:10214000FF06C9F650E040E070E060E08D859E85B6
:102150000E945A6E70932C0360932B0364E671E027
:10216000CE010D960E94106967E6E62E65E0F62E18
:10217000F70161917F01CE0107960E948F68BE0131
:10218000635F7F4FCE0101960E94FB68BE01695FCD
:102190007F4FCE0101960E946169BC01CE010D9670
:1021A0000E94E468CE0101960E940168CE01079664
:1021B0000E940168FBE6EF16F5E0FF06C9F650E065
:1021C00040E070E060E08D859E850E945A6E7093BD
:1021D0002A036093290364E671E0CE010D960E9404
:1021E000106953E6E52E55E0F52EF70161917F0168
:1021F000CE0107960E948F68BE01635F7F4FCE01BC
:1022000001960E94FB68BE01695F7F4FCE01019677
:102210000E946169BC01CE010D960E94E468CE0166
:1022200001960E940168CE0107960E940168F7E6B8
:10223000EF16F5E0FF06C9F650E040E070E060E020
:102240008D859E850E945A6E7093280360932703A4
:1022500064E671E0CE010D960E941069F80161916B
:102260008F01CE0107960E948F68BE01635F7F4F8A
:10227000CE0101960E94FB68BE01695F7F4FCE01CF
:1022800001960E946169BC01CE010D960E94E4682E
:10229000CE0101960E940168CE0107960E94016856
:1022A000F5E003361F07D1F650E040E070E060E053
:1022B0008D859E850E945A6E709326036093250338
:1022C00061157041F0F442E950E069EA70E081E4A0
:1022D00099E00E94DB5050E040E060E078EF81E45C
:1022E00099E00E94ED5061E081E499E00E94E150A4
:1022F0006DE072E081E499E00E94466781E080939E
:10230000C6058091B005813009F098C064E671E09F
:10231000CE010D960E94106949E5E42E45E0F42EA9
:1023200005E515E0F70161917F01CE0107960E9456
:102330008F68BE01635F7F4FCE0101960E94FB68EC
:10234000BE01695F7F4FCE0101960E946169BC01A9
:10235000CE010D960E94E468CE0101960E940168AC
:10236000CE0107960E940168FDE5EF16F5E0FF0635
:10237000C9F650E040E070E060E08D859E850E94E7
:102380005A6E7093200360931F0364E671E0CE01E0
:102390000D960E941069F80161918F01CE01079698
:1023A0000E948F68BE01635F7F4FCE0101960E943D
:1023B000FB68BE01695F7F4FCE0101960E94616993
:1023C000BC01CE010D960E94E468CE0101960E94E8
:1023D0000168CE0107960E940168F5E009351F07E4
:1023E000D1F650E040E070E060E08D859E850E946F
:1023F0005A6E70931E0360931D0361157041F0F0D7
:1024000042E950E069EA70E081E499E00E94DB5023
:1024100050E040E060E078EF81E499E00E94ED5008
:1024200061E081E499E00E94E1506DEF71E081E4A8
:1024300099E00E94466781E08093C7058091B005CE
:10244000823009F09AC064E671E0CE010D960E94D8
:1024500010692FE4E22E25E0F22E0BE415E033E5BF
:10246000C32E35E0D32EF70161917F01CE0107968F
:102470000E948F68BE01635F7F4FCE0101960E946C
:10248000FB68BE01695F7F4FCE0101960E946169C2
:10249000BC01CE010D960E94E468CE0101960E9417
:1024A0000168CE0107960E940168CE14DF04D9F6B8
:1024B00050E040E070E060E08D859E850E945A6E9D
:1024C000709324036093230364E671E0CE010D96BC
:1024D0000E941069F80161918F01CE0107960E9458
:1024E0008F68BE01635F7F4FCE0101960E94FB683B
:1024F000BE01695F7F4FCE0101960E946169BC01F8
:10250000CE010D960E94E468CE0101960E940168FA
:10251000CE0107960E940168F5E00F341F07D1F63F
:1025200050E040E070E060E08D859E850E945A6E2C
:10253000709322036093210361157240F0F442E925
:1025400050E069EA70E081E499E00E94DB5050E0DD
:1025500040E060E078EF81E499E00E94ED5061E0B6
:1025600081E499E00E94E1506FEE71E081E499E02E
:102570000E94466781E08093C5058091B005833055
:10258000E9F564E671E0CE010D960E94106905E45C
:1025900015E099E4E92E95E0F92EF80161918F019B
:1025A000CE0107960E948F68BE01635F7F4FCE0108
:1025B00001960E94FB68BE01695F7F4FCE010196C4
:1025C0000E946169BC01CE010D960E94E468CE01B3
:1025D00001960E940168CE0107960E940168E016EC
:1025E000F106D9F650E040E070E060E08D859E8510
:1025F0000E945A6E70931803609317038091B00580
:102600008430E9F564E671E0CE010D960E94106910
:102610000FE315E083E4E82E85E0F82EF8016191E0
:102620008F01CE0107960E948F68BE01635F7F4FC6
:10263000CE0101960E94FB68BE01695F7F4FCE010B
:1026400001960E946169BC01CE010D960E94E4686A
:10265000CE0101960E940168CE0107960E94016892
:10266000E016F106D9F650E040E070E060E08D85BC
:102670009E850E945A6E70931C0360931B03809189
:10268000B005853019F56BE472E0CE0143960E94E7
:10269000106960913C05CE0101960E948F68BE01D1
:1026A0006F5F7F4FCE0143960E940469CE01019671
:1026B0000E94016850E040E070E060E08B899C89F6
:1026C0000E945A6E70931A0360931903CE010D96FF
:1026D0000E940168CE0143960E94016868960FB679
:1026E000F894DEBF0FBECDBFDF91CF911F910F9148
:1026F000FF90EF90DF90CF900895CF92DF92EF920E
:10270000FF920F931F93CF93DF93C5E0D0E0C12CCE
:10271000D12C8DE9E82E81E4F82EC701B6010E9484
:10272000AD6A00E018EF27E030E0AB0164E670E04E
:1027300081E499E00E944A4E20E030E04AEE51E404
:10274000C701B6010E94CF696B017C01219729F76F
:102750001092D0051092CF051092CE051092CD05A3
:102760001092CC05DF91CF911F910F91FF90EF90C8
:10277000DF90CF9008950F931F9300E018EF27E0AC
:1027800030E040E350E067E171E081E499E00E94CD
:102790004A4E27E030E04EE450E067E171E081E42A
:1027A00099E00E944A4E1092CB051092CA051F91E3
:1027B0000F9108950F931F9300E018EF27E030E08A
:1027C00048E850E067E171E081E499E00E944A4EF8
:1027D00027E030E045EA50E067E171E081E499E00C
:1027E0000E944A4E27E030E043EC50E067E171E0A0
:1027F00081E499E00E944A4E109226011092C90588
:102800001092C8051F910F9108958091B005811114
:1028100016C080915E05803108F080C0A82FB0E01E
:10282000A15ABA4FE0919D05F0E0EE0FFF1FEA5F5D
:10283000FE4F90819C938F5F80935E050895813059
:10284000B1F480915405883008F068C0A82FB0E03A
:10285000AB5ABA4FE0919D05F0E0EE0FFF1FEA5F23
:10286000FE4F90819C938F5F809354050895823032
:1028700009F04EC080914A05883008F04FC0A82F5B
:10288000B0E0A55BBA4FE0919D05F0E0EE0FFF1FB1
:10289000EA5FFE4F90819C938F5F80934A05089575
:1028A000809144058430D0F5A82FB0E0AB5BBA4FDF
:1028B000E0919D05F0E0EE0FFF1FEA5FFE4F908173
:1028C0009C938F5F80934405089580913E058430EA
:1028D00028F5A82FB0E0A15CBA4FE0919D05F0E08B
:1028E000EE0FFF1FEA5FFE4F90819C938F5F8093F6
:1028F0003E05089581E080939D0590913B059111DF
:102900000DC09091080190933C0580933B0508957C
:10291000833031F28430C9F2853061F308958091BB
:10292000B005811116C080915E05803108F084C029
:10293000A82FB0E0A15ABA4FE0919D05F0E0EE0F4C
:10294000FF1FEA5FFE4F90819C938F5F80935E052F
:1029500008958130B1F480915405883008F06CC03E
:10296000A82FB0E0AB5ABA4FE0919D05F0E0EE0F12
:10297000FF1FEA5FFE4F90819C938F5F8093540509
:102980000895823009F052C080914A05883008F0DD
:1029900053C0A82FB0E0A55BBA4FE0919D05F0E0D1
:1029A000EE0FFF1FEA5FFE4F90819C938F5F809335
:1029B0004A050895809144058430F0F5A82FB0E0D1
:1029C000AB5BBA4FE0919D05F0E0EE0FFF1FEA5FB1
:1029D000FE4F90819C938F5F809344050895809172
:1029E0003E05843048F5A82FB0E0A15CBA4FE091D5
:1029F0009D05F0E0EE0FFF1FEA5FFE4F90819C9374
:102A00008F5F80933E05089580913B05811114C02E
:102A1000E0919D05F0E0EE0FFF1FEA5FFE4F808121
:102A200080933C0581E080933B050895833011F24B
:102A30008430A9F2853041F30895CF930E944A0A69
:102A4000C82F80E0CC2361F04091220950912309E6
:102A5000609124097091250982E398E00E94DF517A
:102A6000682F82E398E00E94055282E398E00E947A
:102A70001252882329F060E082E398E00E943E51E0
:102A800082E398E00E940A52882349F061E082E3E1
:102A900098E00E943E5110929D050E948F1480E0A4
:102AA000CC2361F0409122095091230960912409BF
:102AB0007091250985E198E00E94DF51682F85E13A
:102AC00098E00E94055285E198E00E941252882306
:102AD00029F060E085E198E00E943E5185E198E0B0
:102AE0000E940A52882351F061E085E198E00E943B
:102AF0003E5181E080939D050E948F148091B30523
:102B0000811193C280E0CC2361F040912209509161
:102B10002309609124097091250988EF97E00E94AC
:102B2000DF51682F88EF97E00E94055288EF97E009
:102B30000E941252882329F060E088EF97E00E94FB
:102B40003E5188EF97E00E940A52882351F061E0DD
:102B500088EF97E00E943E5182E080939D050E949D
:102B6000051480E0CC2361F04091220950912309A3
:102B700060912409709125098BED97E00E94DF5147
:102B8000682F8BED97E00E9405528BED97E00E9435
:102B90001252882329F060E08BED97E00E943E51AD
:102BA0008BED97E00E940A52882351F061E08BED93
:102BB00097E00E943E5183E080939D050E9405149A
:102BC00080E0CC2361F0409122095091230960916B
:102BD0002409709125098EEB97E00E94DF51682F40
:102BE0008EEB97E00E9405528EEB97E00E94125206
:102BF000882329F060E08EEB97E00E943E518EEB37
:102C000097E00E940A52882351F061E08EEB97E032
:102C10000E943E5184E080939D050E94051480E04F
:102C2000CC2361F04091220950912309609124093D
:102C30007091250981EA97E00E94DF51682F81EAAF
:102C400097E00E94055281EA97E00E941252882381
:102C500029F060E081EA97E00E943E5181EA97E026
:102C60000E940A52882351F061E081EA97E00E94B5
:102C70003E5185E080939D050E94051480E0CC23A1
:102C800061F04091220950912309609124097091CB
:102C9000250984E897E00E94DF51682F84E897E0D7
:102CA0000E94055284E897E00E941252882329F07E
:102CB00060E084E897E00E943E5184E897E00E943B
:102CC0000A52882351F061E084E897E00E943E5167
:102CD00086E080939D050E94051480E0CC2361F07E
:102CE000409122095091230960912409709125098E
:102CF00087E697E00E94DF51682F87E697E00E9401
:102D0000055287E697E00E941252882329F060E07E
:102D100087E697E00E943E5187E697E00E940A52BC
:102D2000882351F061E087E697E00E943E5187E0FA
:102D300080939D050E94051480E0CC2361F04091B2
:102D400022095091230960912409709125098AE490
:102D500097E00E94DF51682F8AE497E00E940552B5
:102D60008AE497E00E941252882329F060E08AE406
:102D700097E00E943E518AE497E00E940A5288231D
:102D800051F061E08AE497E00E943E5188E0809330
:102D90009D050E94051480E0CC2361F0409122093A
:102DA0005091230960912409709125098DE297E0E3
:102DB0000E94DF51682F8DE297E00E9405528DE25C
:102DC00097E00E941252882329F060E08DE297E09C
:102DD0000E943E518DE297E00E940A52882351F0F2
:102DE00061E08DE297E00E943E5189E080939D056D
:102DF0000E94051480E0CC2361F04091220950919B
:102E00002309609124097091250980E197E00E94CF
:102E1000DF51682F80E197E00E94055280E197E042
:102E20000E941252882329F060E080E197E00E941E
:102E30003E5180E197E00E940A52882351F061E000
:102E400080E197E00E943E518AE080939D050E94B8
:102E5000051480E0CC2361F04091220950912309B0
:102E6000609124097091250983EF96E00E94DF515B
:102E7000682F83EF96E00E94055283EF96E00E9450
:102E80001252882329F060E083EF96E00E943E51C1
:102E900083EF96E00E940A52882351F061E083EFAD
:102EA00096E00E943E518BE080939D050E940514A0
:102EB00080E0CC2361F04091220950912309609178
:102EC00024097091250986ED96E00E94DF51682F54
:102ED00086ED96E00E94055286ED96E00E94125221
:102EE000882329F060E086ED96E00E943E5186ED51
:102EF00096E00E940A52882351F061E086ED96E048
:102F00000E943E518CE080939D050E94051480E054
:102F1000CC2361F04091220950912309609124094A
:102F20007091250989EB96E00E94DF51682F89EBAB
:102F300096E00E94055289EB96E00E941252882387
:102F400029F060E089EB96E00E943E5189EB96E023
:102F50000E940A52882351F061E089EB96E00E94BA
:102F60003E518DE080939D050E94051480E0CC23A6
:102F700061F04091220950912309609124097091D8
:102F800025098CE996E00E94DF51682F8CE996E0D4
:102F90000E9405528CE996E00E941252882329F083
:102FA00060E08CE996E00E943E518CE996E00E9438
:102FB0000A52882351F061E08CE996E00E943E516C
:102FC0008EE080939D050E940514CC2369F040910A
:102FD00022095091230960912409709125098FE7F6
:102FE00096E00E94DF51C82F6C2F8FE796E00E9479
:102FF00005528FE796E00E941252882329F060E084
:103000008FE796E00E943E518FE796E00E940A52B9
:10301000882359F061E08FE796E00E943E518FE0EF
:1030200080939D05CF910C940514CF91089542E9AA
:1030300050E069EA70E081E499E00E94DB5050E0E2
:1030400040E070E060E081E499E00E94ED5061E0D2
:1030500081E499E00E94E1508091C705882341F006
:103060006AE071E081E499E00E9446671092C7052A
:103070008091C605882341F069EF70E081E499E012
:103080000E9446671092C6058091C505882341F0CD
:103090006BEE70E081E499E00E9446671092C505EE
:1030A0008091B405882341F06AED70E081E499E0F5
:1030B0000E9446671092B4058091B105882341F0C3
:1030C00066EC70E081E499E00E9446671092B105D9
:1030D0008091B205882341F06EEA70E081E499E0C6
:1030E0000E9446671092B205089510921403109240
:1030F00013031092C3051092C2051092C1051092DD
:10310000C0051092BF051092BE051092BD05109229
:10311000BC051092BB051092BA051092B905109229
:10312000B8051092B7051092B6051092D00510920E
:10313000CF051092CE051092CD051092CC051092BD
:10314000B4051092CB051092CA0510922601109278
:10315000C9051092C8051092C7051092C6051092B5
:10316000C5051092C4051092AC051092AB051092E3
:10317000AA051092A9051092A8051092A705109211
:10318000A6051092A5051092A4051092A305109211
:10319000A2051092A1051092A00510929F05089516
:1031A000CF930E944A0AC82F80E0CC2361F040915F
:1031B000220950912309609124097091250983EC1B
:1031C00098E00E94DF51682F83EC98E00E9405523E
:1031D00083EC98E00E941252882329F060E083EC8F
:1031E00098E00E943E5183EC98E00E940A528823A6
:1031F000F1F061E083EC98E00E943E510E941718C4
:103200008091B0058111E3C080915E05E82FF0E068
:10321000E15AFA4F1082815008F4D6C080935E05BF
:10322000E0915E05F0E0E15AFA4F80E2808380E0B1
:10323000CC2361F040912209509123096091240927
:103240007091250989E898E00E94DF51682F89E88C
:1032500098E00E94055289E898E00E941252882363
:1032600029F060E089E898E00E943E5189E898E002
:103270000E940A52882361F061E089E898E00E9488
:103280003E518091AE05815008F410C18093AE0587
:1032900080E0CC2361F04091220950912309609194
:1032A0002409709125098CE698E00E94DF51682F6F
:1032B0008CE698E00E9405528CE698E00E9412523B
:1032C000882329F060E08CE698E00E943E518CE66D
:1032D00098E00E940A52882369F061E08CE698E049
:1032E0000E943E518091AE058F5F853008F0E1C0AD
:1032F0008093AE0580E0CC2361F04091220950918B
:103300002309609124097091250980EE98E00E94BC
:10331000DF51682F80EE98E00E94055280EE98E021
:103320000E941252882329F060E080EE98E00E940B
:103330003E5180EE98E00E940A528823A1F061E09D
:1033400080EE98E00E943E5180912601811108C0D4
:103350008091C905811104C08091C805882319F0A6
:1033600083E08093AD05CC2369F040912209509110
:10337000230960912409709125098DEF98E00E943E
:10338000DF51C82F6C2F8DEF98E00E9405528DEF12
:1033900098E00E941252882329F060E08DEF98E0B7
:1033A0000E943E518DEF98E00E940A52882351F00E
:1033B00061E08DEF98E00E943E510E94751884E014
:1033C0008093AD05CF91089510925E0529CF81308D
:1033D000A1F480915405E82FF0E0EB5AFA4F1082E7
:1033E000815040F080935405E0915405F0E0EB5A91
:1033F000FA4F1BCF10925405F7CF8230A1F4809181
:103400004A05E82FF0E0E55BFA4F1082815040F06A
:1034100080934A05E0914A05F0E0E55BFA4F05CF5D
:1034200010924A05F7CF8330A1F480914405E82F2C
:10343000F0E0EB5BFA4F1082815040F0809344053E
:10344000E0914405F0E0EB5BFA4FEFCE10924405BB
:10345000F7CF8430A1F480913E05E82FF0E0E15CE5
:10346000FA4F1082815040F080933E05E0913E0576
:10347000F0E0E15CFA4FD9CE10923E05F7CF8530EF
:1034800009F0D5CE80913B05E82FF0E0E45CFA4FDF
:103490001082815040F080933B05E0913B05F0E0C5
:1034A000E45CFA4FC2CE10923B05F7CF1092AE0506
:1034B000EFCE85E01DCF8091AE05823009F47FC04C
:1034C00030F4882369F0813009F441C008958430D4
:1034D00009F4E5C008F4A9C0853009F416C10895BF
:1034E0001092B00580EE97E09093460380934503D9
:1034F0000E94CE0F80EE9FEF90934603809345038A
:103500000E94E90F0E941D1547E050E067E070E05F
:1035100081E499E00E94DB5050E040E06FE178EFF9
:1035200081E499E00E94ED5062E081E499E00E941C
:10353000E1506FE575E081E499E00E9478670E94B0
:10354000D01880915E058031C9F50C945510809398
:10355000B00580EE9FEF90934603809345030E9451
:10356000CE0F0E94041080EE97E090934603809364
:1035700045030E94E90F0E941D1540E250E067E0FC
:1035800070E081E499E00E94DB5050E040E06FE1A0
:1035900078EF81E499E00E94ED5062E081E499E0E7
:1035A0000E94E15065E575E081E499E00E9478674A
:1035B0000E94D01880915405883039F20895809384
:1035C000B00580EE9FEF90934603809345030E94E1
:1035D000E90F0E941F1080EE97E0909346038093BE
:1035E00045030E9404100E941D1549E350E067E066
:1035F00070E081E499E00E94DB5050E040E06FE130
:1036000078EF81E499E00E94ED5062E081E499E076
:103610000E94E1506BE475E081E499E00E947867D4
:103620000E94D01880914A05C7CF83E08093B005EF
:1036300080EE9FEF90934603809345030E94041011
:103640000E943A1080EE97E09093460380934503E2
:103650000E941F100E941D1540E250E064ED70E0D2
:1036600081E499E00E94DB5050E040E06FE178EFA8
:1036700081E499E00E94ED5062E081E499E00E94CB
:10368000E15065E475E081E499E00E9478670E946A
:10369000D01880914405843009F090CF56CF8093A4
:1036A000B00580EE9FEF90934603809345030E9400
:1036B0001F100E94B30F80EE97E090934603809313
:1036C00045030E943A100E941D1549E350E064ED45
:1036D00070E081E499E00E94DB5050E040E06FE14F
:1036E00078EF81E499E00E94ED5062E081E499E096
:1036F0000E94E1506FE375E081E499E00E947867F1
:103700000E94D01880913E05C6CF8093B00580EE10
:103710009FEF90934603809345030E943A1080EEFA
:1037200097E090934603809345030E94B30F0E9455
:103730001D1543E550E06CE070E081E499E00E94E3
:10374000DB5050E040E06FE178EF81E499E00E94C7
:10375000ED5062E081E499E00E94E1506CE375E095
:1037600081E499E00E9478670E94D01880913B051F
:10377000813009F023CFE9CE60E775E08CE795E072
:103780000E944B696FE271E08CE795E00E945269FC
:1037900060917C0570917D0583E799E00E948A37EE
:1037A000882301F10E94171842E950E069EA70E0AD
:1037B00081E499E00E94DB5050E040E060E078EF67
:1037C00081E499E00E94ED5061E081E499E00E947B
:1037D000E1506DE970E081E499E00E94466781E084
:1037E0008093B40565ED72E08CE795E00C94106968
:1037F0008F929F92AF92BF92CF92DF92EF92FF9201
:103800000F931F93CF93DF93CDB7DEB76E970FB6AD
:10381000F894DEBF0FBECDBF64E671E0CE014996DD
:103820000E94706865ED72E080E795E00E94106983
:1038300065ED72E08CE795E00E94106965ED72E03D
:1038400086E795E00E941069E5E5EE2EE5E0FE2EA4
:103850008701D8016D918D01CE0107960E948F6876
:10386000BE01675E7F4FCE0101960E94FB68BE01DC
:10387000695F7F4FCE0101960E946169BC01CE0154
:1038800049960E94E468CE0101960E940168CE012B
:1038900007960E940168F80131976081CE01079672
:1038A0000E948F6860E775E0CE0101960E94FB6878
:1038B000BE01695F7F4FCE0101960E946169BC0124
:1038C00080E795E00E94E468CE0101960E940168BD
:1038D000CE0107960E940168B5E00D351B0709F07F
:1038E000B8CF50E040E070E060E0898D9A8D0E9492
:1038F0005A6E609331037093320380933303909335
:10390000340367E671E08CE795E00E9410690E943D
:10391000BC1B6FE671E08CE795E00E9410690E9485
:10392000BC1B67E771E08CE795E00E9410690E947C
:10393000BC1B6FE771E08CE795E00E9410690E9464
:10394000BC1B67E871E08CE795E00E9410690E945B
:10395000BC1B8091B405811132C48091D0058823AD
:1039600041F067E671E086E795E00E9410690E94E9
:10397000540C8091CF05882341F06FE671E086E713
:1039800095E00E9410690E94540C8091CE05882316
:1039900041F067E771E086E795E00E9410690E94B8
:1039A000540C8091CD05882341F06FE771E086E7E4
:1039B00095E00E9410690E94540C8091CC058823E8
:1039C00041F067E871E086E795E00E9410690E9487
:1039D000540C65ED72E080E795E00E94106982E882
:1039E00095E00E949B34882309F409C18091CA059F
:1039F000882331F06FE871E080E795E00E9410695C
:103A00008091CB05882331F06BE971E080E795E088
:103A10000E94106960E775E082E895E00E94966771
:103A200065ED72E080E795E00E94106980912601C3
:103A3000882331F069EA71E080E795E00E9410691F
:103A40008091C905882331F060EB71E080E795E053
:103A50000E9410698091C805882331F060EA71E006
:103A600080E795E00E94106960E775E082E895E0E4
:103A70000E94966765ED72E080E795E00E9410690C
:103A8000F70161917F01CE0107960E948F6860E780
:103A900075E0CE0101960E94FB68BE01695F7F4F11
:103AA000CE0101960E946169BC0180E795E00E9409
:103AB000E468CE0101960E940168CE0107960E943B
:103AC0000168FDE5EF16F5E0FF06D1F667EB71E062
:103AD000CE0101960E94706860E775E0CE01019604
:103AE0000E946169BC0182E895E00E949667CE0160
:103AF00001960E94016865ED72E080E795E00E9402
:103B000010690FE515E0D8016D918D01CE01079682
:103B10000E948F6860E775E0CE0101960E94FB6805
:103B2000BE01695F7F4FCE0101960E946169BC01B1
:103B300080E795E00E94E468CE0101960E9401684A
:103B4000CE0107960E940168B5E00F361B07D9F633
:103B500061EC71E0CE0101960E94706860E775E04B
:103B6000CE0101960E946169BC0182E895E00E9445
:103B70009667CE0101960E94016865ED72E080E7CC
:103B800095E00E9410690BE415E0F80161918F0146
:103B9000CE0107960E948F6860E775E0CE0101961E
:103BA0000E94FB68BE01695F7F4FCE0101960E94B3
:103BB0006169BC0180E795E00E94E468CE0101964E
:103BC0000E940168CE0107960E940168F5E0033566
:103BD0001F07D9F66CEC71E0CE0101960E94706867
:103BE00060E775E0CE0101960E946169BC0182E840
:103BF00095E00E949667CE0101960E94016880912F
:103C0000C8058823F1F164E671E0CE0149960E946F
:103C100010690BE415E0D8016D918D01CE01079676
:103C20000E948F68BE01675E7F4FCE0101960E94A1
:103C3000FB68BE01695F7F4FCE0101960E946169FA
:103C4000BC01CE0149960E94E468CE0101960E9413
:103C50000168CE0107960E940168B5E003351B0795
:103C6000D1F650E040E070E060E0898D9A8D0E94CE
:103C70005A6E60932D0370932E0380932F039093BD
:103C800030038091C905811105C08091C805882342
:103C900009F495C264E671E0CE0149960E9410696C
:103CA0007FE5E72E75E0F72E8701F80161918F011E
:103CB000CE0107960E948F68BE01675E7F4FCE01DE
:103CC00001960E94FB68BE01695F7F4FCE0101969D
:103CD0000E946169BC01CE0149960E94E468CE0150
:103CE00001960E940168CE0107960E940168F5E0E6
:103CF00007361F07D1F650E040E070E060E0898DA4
:103D00009A8D0E945A6E6093410370934203809390
:103D100043039093440364E671E0CE0149960E9408
:103D2000106902E315E0F801D7018D917D018193BF
:103D3000B7E6EB16B5E0FB06B9F7F80161918F0124
:103D4000CE0107960E948F68BE01675E7F4FCE014D
:103D500001960E94FB68BE01695F7F4FCE0101960C
:103D60000E946169BC01CE0149960E94E468CE01BF
:103D700001960E940168CE0107960E940168F5E055
:103D80000A331F07D1F640E150E070E060E082E3C3
:103D900095E00E94716F609341037093420380939A
:103DA00043039093440364E671E0CE0149960E9478
:103DB0001069A7E6B5E009E215E0F8018D9181935D
:103DC00085E0E133F807D1F7D8016D918D01CE017F
:103DD00007960E948F68BE01675E7F4FCE010196F5
:103DE0000E94FB68BE01695F7F4FCE0101960E9471
:103DF0006169BC01CE0149960E94E468CE0101963A
:103E00000E940168CE0107960E940168B5E0013367
:103E10001B07D1F640E150E070E060E089E295E0F8
:103E20000E94716F60933D0370933E0380933F0344
:103E3000909340030E94DA0B609135037091360332
:103E4000809137039091380320E147E155E00E94CB
:103E5000A17065ED72E0CE0143960E94706865ED39
:103E600072E0CE010D960E94706857E1C52E55E0B4
:103E7000D52E6FE1E62E65E0F62E8601F801619100
:103E80008F01CE0107960E948F68BE016D5E7F4F45
:103E9000CE0101960E94FB68BE01695F7F4FCE0193
:103EA00001960E946169BC01CE0143960E94E468BC
:103EB000CE0101960E940168CE0107960E9401681A
:103EC000E016F106D9F66091390370913A038091BA
:103ED0003B0390913C0320E140E255E00E94A17039
:103EE00030E2A32E35E0B32E48E2842E45E0942E36
:103EF0007501D7016D917D01CE0107960E948F68F3
:103F0000BE01635F7F4FCE0101960E94FB68BE0138
:103F1000695F7F4FCE0101960E946169BC01CE01AD
:103F20000D960E94E468CE0101960E940168CE01C0
:103F300007960E9401688E149F04D9F6BE01635F44
:103F40007F4FCE0101960E94FB68BE016D5E7F4FE0
:103F5000CE0101960E946169BC01CE010D960E94BE
:103F6000E468CE0101960E94016865ED72E080E789
:103F700095E00E94106960E775E0CE0101960E940D
:103F8000FB68BE01635F7F4FCE0101960E946169AD
:103F9000BC0180E795E00E94E468CE0101960E9492
:103FA000016882E895E00E949B348823B1F064EDBB
:103FB00071E0CE0101960E947068BE01635F7F4F81
:103FC000CE0101960E946169BC0182E895E00E94E1
:103FD0009667CE0101960E94016864E671E0CE0109
:103FE00049960E94106924E2822E25E0922EF40167
:103FF00061914F01CE0107960E948F68BE01675EF6
:104000007F4FCE0101960E94FB68BE01695F7F4F22
:10401000CE0101960E946169BC01CE0149960E94C1
:10402000E468CE0101960E940168CE0107960E94C5
:104030000168E814F904D9F650E040E070E060E06F
:10404000898D9A8D0E945A6E70932803609327037E
:1040500064E671E0CE0149960E94106994E2E92E6F
:1040600095E0F92ED5016D915D01CE0107960E9474
:104070008F68BE01675E7F4FCE0101960E94FB688C
:10408000BE01695F7F4FCE0101960E946169BC014C
:10409000CE0149960E94E468CE0101960E94016813
:1040A000CE0107960E940168EA14FB04D9F650E09D
:1040B00040E070E060E0898D9A8D0E945A6E7093A6
:1040C00026036093250364E671E0CE0149960E94C1
:1040D00010698BE1E82E85E0F82EF70161917F01F0
:1040E000CE0107960E948F68BE01675E7F4FCE01AA
:1040F00001960E94FB68BE01695F7F4FCE01019669
:104100000E946169BC01CE0149960E94E468CE011B
:1041100001960E940168CE0107960E9401680E1563
:104120001F05D9F650E040E070E060E0898D9A8D7F
:104130000E945A6E70932C0360932B0364E671E027
:10414000CE0149960E9410690BE115E0D6016D91F0
:104150006D01CE0107960E948F68BE01675E7F4F9A
:10416000CE0101960E94FB68BE01695F7F4FCE01C0
:1041700001960E946169BC01CE0149960E94E468E3
:10418000CE0101960E940168CE0107960E94016847
:104190000C151D05D9F650E040E070E060E0898D17
:1041A0009A8D0E945A6E70932A0360932903CE0160
:1041B0000D960E940168CE0143960E940168CE01CF
:1041C00049960E9401686E960FB6F894DEBF0FBE46
:1041D000CDBFDF91CF911F910F91FF90EF90DF90B6
:1041E000CF90BF90AF909F908F9008954F925F9225
:1041F0006F927F928F929F92AF92BF92CF92DF92F7
:10420000EF92FF920F931F93CF93DF93CDB7DEB75B
:1042100062970FB6F894DEBF0FBECDBF0E9417188D
:1042200065ED72E0CE010D960E94706880912601C6
:10423000811107C08091C905811103C08091C80513
:1042400081110E94F81B8091B4058111C1C5809134
:104250002B0390912C039093070380930603809186
:10426000290390912A039093090380930803809176
:1042700027039091280390930B0380930A03809166
:1042800025039091260390930D0380930C03809156
:10429000CE05811109C08091CD05811105C08091A5
:1042A000CC05882309F494C08091CA05882309F4B9
:1042B00045C040919F0550E02091200390919E05BC
:1042C00030E8939FC0011124BA0106E0660F771F02
:1042D0000A95E1F7862B972B35E0440F551F3A9549
:1042E000E1F7842B952B4091A80560E1469FA00142
:1042F0001124842B952B4091A105E8E04E9FA0014D
:104300001124842B952B4091A205F4E04F9FA0012E
:104310001124842B952B422F469550E0440F551FB6
:1043200042705527622F70E061707727462B572B1C
:10433000842B952B90931603809315038091CB05C6
:10434000882309F445C040919F0550E0209118034F
:1043500090919E0530E8939FC0011124BA01A6E018
:10436000660F771FAA95E1F7862B972BB5E0440FD0
:10437000551FBA95E1F7842B952B4091A80560E174
:10438000469FA0011124842B952B4091A105E8E0C4
:104390004E9FA0011124842B952B4091A205F4E09F
:1043A0004F9FA0011124842B952B422F469550E05E
:1043B000440F551F42705527622F70E061707727B8
:1043C000462B572B842B952B909316038093150324
:1043D0008091D005882309F4A4C08091CA05882360
:1043E00009F44DC040912003842F869586958695CB
:1043F00090E073E0880F991F7A95E1F7887099270C
:10440000242F2695269530E0220F331F220F331FCD
:1044100024703327822B932B242F30E021703327F5
:10442000822B932B242F269530E0220F331F2270EE
:104430003327822B932B20919E0540E8249F9001E7
:10444000112440919F0560E4469FA0011124242B74
:10445000352B4091A005E0E24E9FA0011124242BB2
:10446000352B4091A805F0E14F9FA0011124242B8A
:10447000352B822B932B90931603809315038091F9
:10448000CB05882309F44DC040911803842F8695ED
:104490008695869590E003E0880F991F0A95E1F7CD
:1044A00088709927242F2695269530E0220F331FF8
:1044B000220F331F24703327822B932B242F30E0BD
:1044C00021703327822B932B242F269530E0220F47
:1044D000331F22703327822B932B20919E0540E8B7
:1044E000249F9001112440919F0560E4469FA00104
:1044F0001124242B352B4091A005E0E24E9FA00112
:104500001124242B352B4091A805F0E14F9FA001E9
:104510001124242B352B822B932B909316038093FD
:1045200015038091CF05882309F492C02091AA0534
:1045300030E08091A30590E0982F8827990F409153
:10454000A405942B4091AC05842B4091A50560E80F
:10455000469FA0011124842B952B4091A605E0E4F1
:104560004E9FA0011124842B952B4091A705F0E2CA
:104570004F9FA0011124842B952B4091A80560E149
:10458000469FA0011124842B952BA901A3E0440F81
:10459000551FAA95E1F7842B952B220F331F220F6D
:1045A000331F822B932B2091AB0530E0220F331F5A
:1045B000822B932B90931603809315038091CA0549
:1045C000882311F190911F0380912003E82EF12C94
:1045D000E8E0EE22FF24882E912CF4E08F2299242B
:1045E0008E28A82EB12C21E0A222BB24A828C82EF8
:1045F000D12C32E0C322DD24CA28E92FFC2DCF01C3
:1046000090931403809313038091CB05882301F1C9
:104610008091170390911803092F10E0087011275B
:10462000692E712CF4E06F22772406296090200314
:10463000712C21E0622277240629492E512C32E088
:1046400043225524402A942D9093140380931303FE
:1046500065ED72E0CE0107960E9470680EE013E0EF
:1046600074EEC72E71E0D72EEEE0EE2EE3E0FE2EC4
:1046700002501109F80181818F9380818F93DF921D
:10468000CF92FF92EF920E94D270BE01695F7F4F7E
:10469000CE0101960E94FB686EE073E0CE010196A8
:1046A0000E947469BC01CE0107960E94E468CE01A5
:1046B00001960E9401680F900F900F900F900F903D
:1046C0000F90F3E006301F0799F682E895E00E940C
:1046D0009B348823B1F06BEE71E0CE0101960E940D
:1046E0007068BE01695F7F4FCE0101960E946169CB
:1046F000BC0182E895E00E949667CE0101960E9477
:10470000016880910603909107039093EF028093D4
:10471000EE0280910803909109039093F102809337
:10472000F00280910A0390910B039093F30280931F
:10473000F20280910C0390910D039093F502809307
:10474000F40280911B0390911C039093F7028093D5
:10475000F6021092F9021092F80220911F03809144
:1047600020032093FA028093FB023091CE05409102
:104770001D0350911E03311109C08091CD05811197
:1047800005C08091CC05882309F4FBC26091190310
:1047900080E0962F979599279795842B952B90934A
:1047A000FD028093FC028091230390912403909357
:1047B000FF028093FE028091210390912203909347
:1047C000010380930003809113039091140390934D
:1047D0000303809302038091D00581110BC0311136
:1047E00009C08091CD05811105C08091CC05882339
:1047F00009F4CCC28091CA05882341F080E09091F1
:104800001503822B90930503809304038091CB05BD
:10481000882351F080E09091150320911703822B9B
:10482000909305038093040342E950E069EA70E045
:1048300081E499E00E94DB5050E040E070E060E0ED
:1048400081E499E00E94ED5061E081E499E00E94EA
:10485000E1506CED72E081E499E00E94466764E605
:1048600070E080E090E00E94C16342E950E069EAB4
:1048700070E081E499E00E94DB5050E040E068E3A2
:1048800074E081E499E00E94ED5066EC72E081E40E
:1048900099E00E94466764E670E080E090E00E9444
:1048A000C16365ED72E0CE0107960E94106906E0D3
:1048B00013E054EEC52E51E0D52E6EE0E62E63E0F7
:1048C000F62E02501109F80181818F9380818F9318
:1048D000DF92CF92FF92EF920E94D270BE01695F89
:1048E0007F4FCE0101960E94FB686EE073E0CE011F
:1048F00001960E947469BC01CE0107960E94E4688B
:10490000CE0101960E9401680F900F900F900F90BA
:104910000F900F90F2E00E3E1F0799F682E895E0A7
:104920000E949B34882399F165ED72E0CE010D96CB
:104930000E941069BE01635F7F4FCE0101960E9405
:10494000FB68BE01695F7F4FCE0101960E946169DD
:10495000BC01CE010D960E94E468CE0101960E9432
:1049600001686CEF71E0CE0101960E947068BE0193
:10497000695F7F4FCE0101960E946169BC0182E8A8
:1049800095E00E949667CE0101960E94016865ED50
:1049900072E0CE0107960E9410698091FD028F930C
:1049A0008091FC028F9334EEC32E31E0D32EDF9240
:1049B000CF924EE0E42E43E0F42EFF92EF920E945D
:1049C000D270BE01695F7F4FCE0101960E94FB68E5
:1049D000B701CE0101960E947469BC01CE01079611
:1049E0000E94E468CE0101960E9401688091FB025A
:1049F0008F938091FA028F93DF92CF92FF92EF9282
:104A00000E94D270BE01695F7F4FCE0101960E9465
:104A1000FB68B701CE0101960E947469BC01CE010A
:104A200007960E94E468CE0101960E94016882E820
:104A300095E00E949B340FB6F894DEBF0FBECDBF49
:104A4000882399F165ED72E0CE010D960E94106900
:104A5000BE01635F7F4FCE0101960E94FB68BE01DD
:104A6000695F7F4FCE0101960E946169BC01CE0152
:104A70000D960E94E468CE0101960E94016864E1EF
:104A800072E0CE0101960E947068BE01695F7F4F9F
:104A9000CE0101960E946169BC0182E895E00E9406
:104AA0009667CE0101960E94016864E671E0CE012E
:104AB00007960E9410698091FB028F938091FA0201
:104AC0008F9394EEC92E91E0D92EDF92CF922EE0F3
:104AD000E22E23E0F22EFF92EF920E94D27080919C
:104AE00005038F93809104038F93DF92CF92FF92FF
:104AF000EF920E94D270BE01695F7F4FCE01019696
:104B00000E94FB68B701CE0101960E947469BC0146
:104B1000CE0107960E94E468CE0101960E940168CA
:104B200082E895E00E949B340FB6F894DEBF0FBE7A
:104B3000CDBF882399F165ED72E0CE010D960E94FC
:104B40001069BE01635F7F4FCE0101960E94FB6832
:104B5000BE01695F7F4FCE0101960E946169BC0171
:104B6000CE010D960E94E468CE0101960E94016874
:104B700064E272E0CE0101960E947068BE01695F36
:104B80007F4FCE0101960E946169BC0182E895E0E9
:104B90000E949667CE0101960E94016864E670E06B
:104BA00080E090E00E94C16360E08AE10E94C964F5
:104BB00060E089E10E94C96461E088E10E94C96403
:104BC00060E170E080E090E00E94C16361E089E113
:104BD0000E94C96464E070E080E090E00E94C163DC
:104BE00061E08AE10E94C96464E070E080E090E0E6
:104BF0000E94C16360E08AE10E94C9648EE390E094
:104C00000E94FA6360E089E10E94C96463E070E099
:104C100080E090E00E94C16342E950E069EA70E000
:104C200081E499E00E94DB5050E040E068E374E0EA
:104C300081E499E00E94ED5061E081E499E00E94F6
:104C4000E15062EB72E081E499E00E9446678CE0FB
:104C5000D82EF12CE12C61E089E10E94C964F801B1
:104C6000808191810E2C02C0969587950A94E2F777
:104C700061E080FF60E08AE10E94C96483E290E025
:104C80000E94FA6360E089E10E94C96483E290E0D7
:104C90000E94FA63FFEFEF1AFF0A20E1E216F10427
:104CA000D1F660E08AE10E94C9648091CF05882333
:104CB00009F471C060E08AE10E948D6461E089E1DD
:104CC0000E94C964F12C2AE233E040E050E061E048
:104CD0008AE10E9420656C51734081099109653019
:104CE00071058105910508F4F39434E0F312EBCFDC
:104CF00061E08AE10E948D6460E089E10E94C964FC
:104D000084E690E00E94FA63DA940E5F1F4FD110A0
:104D1000A0CF42E950E069EA70E081E499E00E94A6
:104D2000DB5050E040E068E374E081E499E00E94E9
:104D3000ED5061E081E499E00E94E15068E972E0A1
:104D400081E499E00E94466760E08AE10E948D64F8
:104D500064E670E080E090E00E94C1630E94D70C9E
:104D60008091B1058823F1F0609176057091770507
:104D700083E799E00E94A03782E895E00E94893499
:104D800023C05093FD024093FC020DCD809115038A
:104D90009091160345CD68E270E080E090E00E94BB
:104DA000C163B2CF80912601811108C08091C905ED
:104DB000811104C08091C805882331F082E895E014
:104DC0000E949B348111D8CFCE0107960E940168C2
:104DD0001092B40582E08093AD05CE010D960E943D
:104DE000016862960FB6F894DEBF0FBECDBFDF91AB
:104DF000CF911F910F91FF90EF90DF90CF90BF90D8
:104E0000AF909F908F907F906F905F904F9008959C
:104E1000EF92FF920F931F93CF93DF93F12CE12C2E
:104E200010E000E030E020E050E040E070E060E0C2
:104E300081E499E00E94025486E299E00E942934BC
:104E40008CE2E82EFF24F39407E020E14FE066E0D7
:104E50008AE199E00E94A2498DEF98E00E94FB5000
:104E600080EE98E00E94FB5083EC98E00E94FB509B
:104E700086EA98E00E94FB5089E898E00E94FB5087
:104E80008CE698E00E94FB508FE498E00E94FB5073
:104E900082E398E00E94FB5085E198E00E94FB507D
:104EA00088EF97E00E94FB508BED97E00E94FB504B
:104EB0008EEB97E00E94FB5081EA97E00E94FB5046
:104EC00084E897E00E94FB5087E697E00E94FB5041
:104ED0008AE497E00E94FB508DE297E00E94FB502D
:104EE00080E197E00E94FB5083EF96E00E94FB5028
:104EF00086ED96E00E94FB5089EB96E00E94FB5005
:104F00008CE996E00E94FB508FE796E00E94FB50F0
:104F100082E696E00E94FB5085E496E00E94FB50FA
:104F200088E296E00E94FB508BE096E00E94FB50E6
:104F30008EEE95E00E94FB5081ED95E00E94FB50C3
:104F400082E895E00E94293465ED72E08CE795E0F7
:104F50000E94706865ED72E086E795E00E947068D7
:104F600065ED72E080E795E00E947068C7E4D3E0E9
:104F700007E115E0CE010E94FB506D960C171D074E
:104F8000C9F7DF91CF911F910F91FF90EF90089596
:104F900080E795E00E94016886E795E00E9401683D
:104FA0008CE795E00C940168EF92FF920F931F93AA
:104FB000EE24EA94FE2C04E110E02DEC30E045E014
:104FC00050E065E070E081E499E00E94614A26E6E5
:104FD00030E04EE150E065E070E081E499E00E944D
:104FE000614A26E630E047E350E065E070E081E4A6
:104FF00099E00E94614A23E330E04EE150E062ED27
:1050000070E081E499E00E94614A23E330E047E3E5
:1050100050E062ED70E081E499E00E94614A29E18C
:1050200030E040E550E065E070E081E499E00E9406
:10503000614A2BE930E04CE850E065EA70E081E439
:1050400099E00E94614A62E081E499E00E94E150A7
:1050500060EE7FEF81E499E01F910F91FF90EF9058
:105060000C94E7500E94D10D0E94D42780EE97E067
:1050700090934603809345030E94CE0F80EE9FEFEE
:1050800090934603809345030E94E90F0E941F10EE
:105090000E9404100E943A100E94B30F1092B005B3
:1050A0008AE08093AF051092AE0508950F931F9389
:1050B000CF930E944A0A2091240930912509C90101
:1050C00082559109099708F062C180912209909157
:1050D0002309AC014B52510949305105D0F540919B
:1050E000CF054423B1F18091C305C1E08C278093A3
:1050F000C3058823F9F000EE17E027E030E040E335
:1051000050E06AE570E081E499E00E944A4EC09365
:10511000AC051092250910922409109223091092CF
:10512000220960E570E080E090E0CF911F910F913F
:105130000C94C16300E018EF27E030E040E350E05A
:105140006AE570E081E499E00E944A4E1092AC0555
:10515000E0CFAC01475451094830510550F540911A
:10516000CF05442331F18091C205C1E08C278093A3
:10517000C205882379F000EE17E027E030E04EE426
:1051800050E06AE570E081E499E00E944A4EC093E5
:10519000AB05BFCF00E018EF27E030E04EE450E071
:1051A0006AE570E081E499E00E944A4E1092AB05F6
:1051B000B0CFAC01475651094930510550F54091E7
:1051C000CF05442331F18091C105C1E08C27809344
:1051D000C105882379F000EE17E027E030E04BE6C8
:1051E00050E06AE570E081E499E00E944A4EC09385
:1051F000AA058FCF00E018EF27E030E04BE650E043
:105200006AE570E081E499E00E944A4E1092AA0596
:1052100080CFAC01455851094930510550F54091B6
:10522000CF05442331F18091C005C1E08C278093E4
:10523000C005882379F000EE17E027E030E048E869
:1052400050E06AE570E081E499E00E944A4EC09324
:10525000A9055FCF00E018EF27E030E048E850E014
:105260006AE570E081E499E00E944A4E1092A90537
:1052700050CFAC01435A51094930510550F5409186
:10528000CF05442331F18091BF05C1E08C27809385
:10529000BF05882379F000EE17E027E030E045EA0B
:1052A00050E06AE570E081E499E00E944A4EC093C4
:1052B000A8052FCF00E018EF27E030E045EA50E0E6
:1052C0006AE570E081E499E00E944A4E1092A805D8
:1052D00020CFAC01435C51094930510550F5409154
:1052E000CF05442331F18091BE05C1E08C27809326
:1052F000BE05882379F000EE17E027E030E043ECAC
:1053000050E06AE570E081E499E00E944A4EC09363
:10531000A705FFCE00E018EF27E030E043EC50E0B7
:105320006AE570E081E499E00E944A4E1092A70578
:10533000F0CE815E9109099750F58091CF058823C1
:1053400031F18091BD05C1E08C278093BD05882394
:1053500079F000EE17E027E030E040EE50E06AE53B
:1053600070E081E499E00E944A4EC093A605D1CE38
:1053700000E018EF27E030E040EE50E06AE570E032
:1053800081E499E00E944A4E1092A605C2CEC9015E
:105390008D5B9109099708F0A1C180912209909134
:1053A0002309AC014B5251094930510550F5409148
:1053B000CF05442331F18091BC05C1E08C27809357
:1053C000BC05882379F000EE17E027E030E040E3E9
:1053D00050E063EC70E081E499E00E944A4EC09393
:1053E000A50597CE00E018EF27E030E040E350E05D
:1053F00063EC70E081E499E00E944A4E1092A505AA
:1054000088CEAC01475451094830510550F54091C0
:10541000CF05442331F18091BB05C1E08C278093F7
:10542000BB05882379F000EE17E027E030E04EE47A
:1054300050E063EC70E081E499E00E944A4EC09332
:10544000A40567CE00E018EF27E030E04EE450E01E
:1054500063EC70E081E499E00E944A4E1092A4054A
:1054600058CEAC01475651094930510508F05CC08F
:105470004091CF05442331F18091BA05C1E08C27DA
:105480008093BA05882379F000EE17E027E030E03A
:105490004BE650E063EC70E081E499E00E944A4EF4
:1054A000C093A30536CE00E018EF27E030E04BE6CE
:1054B00050E063EC70E081E499E00E944A4E109263
:1054C000A30527CE4091CE05411108C04091CD05DE
:1054D000411104C04091CC05442331F18091B905BC
:1054E000C1E08C278093B905882379F000EE17E09E
:1054F00027E030E04BE650E063EC70E081E499E0B7
:105500000E944A4EC093A20504CE00E018EF27E0A7
:1055100030E04BE650E063EC70E081E499E00E94FB
:105520004A4E1092A205F5CDAC01445851094A30BB
:10553000510590F54091CE05411108C04091CD052F
:10554000411104C04091CC05442331F18091B8054C
:10555000C1E08C278093B805882379F000EE17E02E
:1055600027E030E048E850E063EC70E081E499E047
:105570000E944A4EC093A105CCCD00E018EF27E071
:1055800030E048E850E063EC70E081E499E00E948C
:105590004A4E1092A105BDCDAC01435A5109493084
:1055A000510550F54091D00541110CC04091CE05F8
:1055B000411108C04091CD05411104C04091CC0576
:1055C0004423D1F08091BF05C1E08C278093BF05B3
:1055D000882349F000EE17E027E030E045EA50E08C
:1055E00063EC70E060CE00E018EF27E030E045EAC1
:1055F00050E063EC70E066CEAC01435C5109493089
:105600005105B0F54091D00541110CC04091CE0537
:10561000411108C04091CD05411104C04091CC0515
:10562000442331F18091B705C1E08C278093B70501
:10563000882379F000EE17E027E030E043EC50E0FB
:1056400063EC70E081E499E00E944A4EC093A005AB
:1056500060CD00E018EF27E030E043EC50E063EC71
:1056600070E081E499E00E944A4E1092A00551CD6D
:10567000815E9109099790F58091CE05811108C04E
:105680008091CD05811104C08091CC05882331F132
:105690008091B605C1E08C278093B605882379F008
:1056A00000EE17E027E030E040EE50E063EC70E001
:1056B00081E499E00E944A4EC0939F052ACD00E004
:1056C00018EF27E030E040EE50E063EC70E081E45A
:1056D00099E00E944A4E10929F051BCD2D5D310925
:1056E0002435310508F015CD8091220990912309C8
:1056F0008C5D9109429708F00CCD70E060E081E488
:1057000099E00E942D0A0E94322882E08093AD0524
:1057100000CD4F925F926F927F928F929F92AF9245
:10572000BF92CF92DF92EF92FF920F931F93CF938E
:10573000DF9362E081E499E00E94E15060EE7FEF48
:1057400081E499E00E94E750EE24EA94FE2C0AEEF0
:1057500010E02AE331E045E050E065E070E081E4EC
:1057600099E00E94614A27E830E045E050E065E0BA
:1057700070E081E499E00E94614AC8E0D0E0812CA9
:10578000912CA0EAAA2EA0E4BA2EC501B4010E9471
:10579000AD6AEE24EA94FE2C8B012EE331E0AB01DE
:1057A00065E070E081E499E00E94B44920E030E0D7
:1057B0004AEE51E4C501B4010E94CF694B015C017E
:1057C000219719F74EE050E06AE070E081E499E03B
:1057D0000E94DB5068EE71E081E499E00E94466728
:1057E00049E250E06AE070E081E499E00E94DB5019
:1057F00061EE71E081E499E00E94466746E450E082
:105800006AE070E081E499E00E94DB506AED71E0AB
:1058100081E499E00E94466744E650E06AE070E067
:1058200081E499E00E94DB5063ED71E081E499E04E
:105830000E94466741E850E06AE070E081E499E048
:105840000E94DB506CEC71E081E499E00E944667B5
:105850004EE950E06AE070E081E499E00E94DB509C
:105860006FEF7FEF81E499E00E94E75065EC71E013
:1058700081E499E00E9446674BEB50E06AE070E0FB
:1058800081E499E00E94DB506EEB71E081E499E0E5
:105890000E944667C7E0D0E0C12CD12C4DE9E42E30
:1058A00041E4F42EA12C58EFB52EC701B6010E9499
:1058B000AD6A2B010FE110E029E030E0AB0164E6B6
:1058C00070E081E499E00E944F4B28E030E0A201B3
:1058D00064E670E081E499E00E944F4B850127E087
:1058E00030E0A20164E670E081E499E00E944A4E53
:1058F00020E030E04AEE51E4C701B6010E94CF69D2
:105900006B017C0128E431EA48E053E40E94956B86
:1059100087FD03C0AA24AA94BA2C219731F6C2E0CD
:10592000D0E0C12C20E8D22E23E4E22E22E4F22E95
:10593000C701B6010E94AD6A4B010FE110E029E0FA
:1059400030E0AB0167E171E081E499E00E944F4BE8
:1059500028E030E0A40167E171E081E499E00E9471
:105960004F4B00E018EF27E030E0A40167E171E061
:1059700081E499E00E944A4E20E030E04AEE51E492
:10598000C701B6010E94CF696B017C01219709F024
:10599000FAC020E030E04AEE51E40E94CF696B018A
:1059A0007C01C3E0D0E0C701B6010E94AD6A4B01A3
:1059B0000FE110E029E030E0AB0167E171E081E444
:1059C00099E00E944F4B28E030E0A40167E171E0CC
:1059D00081E499E00E944F4B00E018EF27E030E0AF
:1059E000A40167E171E081E499E00E944A4E20E061
:1059F00030E04AEE51E4C701B6010E94CF696B0165
:105A00007C01219781F66FE170E081E499E00E94CA
:105A1000E750E12C8CEFF82E0CE110E022EB30E0A7
:105A200046E050E06CE870E081E499E00E940C5997
:105A30004EE050E061E970E081E499E00E94DB50C3
:105A40006FEA71E081E499E00E94466760EE7FEFC3
:105A500081E499E00E94E75049E250E06DEB70E08C
:105A600081E499E00E94DB506AEA71E081E499E008
:105A70000E94466746E450E06DEB70E081E499E0F7
:105A80000E94DB5064EA71E081E499E00E9446677D
:105A90006FE170E081E499E00E94E7500DE110E0D1
:105AA00022EB30E04DE550E06CE870E081E499E0F5
:105AB0000E940C5944E650E06DEB70E081E499E0FF
:105AC0000E94DB506EE971E081E499E00E94466734
:105AD00060EE7FEF81E499E00E94E75041E850E0FA
